:020000020000FC
:0200000040C0FE
:10007C004B65793A00000E94B600F0E0EEE30E9476
:10008C007B000E94E6000FEF01B900E002B9529824
:10009C0000EB04B92C9A01E50CBD2C9A4A9BFDCFC0
:1000AC0010EF2C980CD0022F0E94F3000E945F00DE
:1000BC00F4CF04E80E948A00022F0E949F001EBD0C
:1000CC000DB507FFFDCF2EB50895003031F41F702C
:1000DC001068012F0E948A000895013029F41F70C6
:1000EC00106C012F0E948A000895FF93EF930F93D9
:1000FC00EE0FFF1F0591003019F00E949F00FACF00
:10010C000F91EF91FF9108951F930E94CC00102F37
:10011C00107F12B900000000129A00000000129823
:10012C000295007F02B9129A0000000012981F91EC
:10013C0008951F930E94CC00102F107F116012B9EC
:10014C000000129A0000129800000295007F007FB8
:10015C00016002B90000129A000012981F910895D4
:10016C0007EF01B90E9406010E94060102E00E94FD
:10017C008A0008E20E948A000EE00E948A0001E0D8
:10018C000E948A0000E80E948A0008950F9307E0FD
:10019C0001B902EF02B90000129A0000000000B190
:1001AC0012980000129A00000000129800000078CB
:1001BC00003891F307EF01B900E002B90F910895EF
:1001CC0007E60093C40002E00093C00006E0009331
:1001DC00C20008E10093C10008951F931091C00064
:1001EC0015FFFCCF0D0F0093C6001F9108951F93B0
:1001FC001091C00017FFFCCF0091C6001F9108950D
:10020C0050E54AEF4A950000E9F75A95D1F7089561
:00000001FF
