:020000020000FC
:1000000000C0D0E30FEF01B9529A5A9800E002B94C
:1000100000E404B900E40CBD5A980E942000182F97
:100020001F3FD1F31D0F5A9A1C99FECF03D022B95E
:100030005A98F2CF1EBD0DB507FFFDCF2EB508951E
:100040004FE047B94FEF48B967EF80E073E00E9497
:100050005B0068B900000E945B00349901C01FC0BA
:100060000E945B00359902C081E019C00E945B00CC
:10007000369904C00E945B0082E011C00E945B00C0
:10008000379904C00E945B0083E009C00E945B00B6
:10009000703069F067957A950E945B00DACF0E9414
:1000A0005B00880F880F870F0E945B0008958FEF19
:1000B0000E945B00089559E64AEF4A950000E9F76F
:0600C0005A95D1F70895E6
:00000001FF
